{
  "_format": "hh-sol-artifact-1",
  "contractName": "SuperMonsters",
  "sourceName": "contracts/SuperMonsters.sol",
  "abi": [
    {
      "inputs": [
        {
          "internalType": "string",
          "name": "baseTokenURI",
          "type": "string"
        }
      ],
      "stateMutability": "nonpayable",
      "type": "constructor"
    },
    {
      "inputs": [],
      "name": "ERC721EnumerableForbiddenBatchMint",
      "type": "error"
    },
    {
      "inputs": [
        {
          "internalType": "address",
          "name": "sender",
          "type": "address"
        },
        {
          "internalType": "uint256",
          "name": "tokenId",
          "type": "uint256"
        },
        {
          "internalType": "address",
          "name": "owner",
          "type": "address"
        }
      ],
      "name": "ERC721IncorrectOwner",
      "type": "error"
    },
    {
      "inputs": [
        {
          "internalType": "address",
          "name": "operator",
          "type": "address"
        },
        {
          "internalType": "uint256",
          "name": "tokenId",
          "type": "uint256"
        }
      ],
      "name": "ERC721InsufficientApproval",
      "type": "error"
    },
    {
      "inputs": [
        {
          "internalType": "address",
          "name": "approver",
          "type": "address"
        }
      ],
      "name": "ERC721InvalidApprover",
      "type": "error"
    },
    {
      "inputs": [
        {
          "internalType": "address",
          "name": "operator",
          "type": "address"
        }
      ],
      "name": "ERC721InvalidOperator",
      "type": "error"
    },
    {
      "inputs": [
        {
          "internalType": "address",
          "name": "owner",
          "type": "address"
        }
      ],
      "name": "ERC721InvalidOwner",
      "type": "error"
    },
    {
      "inputs": [
        {
          "internalType": "address",
          "name": "receiver",
          "type": "address"
        }
      ],
      "name": "ERC721InvalidReceiver",
      "type": "error"
    },
    {
      "inputs": [
        {
          "internalType": "address",
          "name": "sender",
          "type": "address"
        }
      ],
      "name": "ERC721InvalidSender",
      "type": "error"
    },
    {
      "inputs": [
        {
          "internalType": "uint256",
          "name": "tokenId",
          "type": "uint256"
        }
      ],
      "name": "ERC721NonexistentToken",
      "type": "error"
    },
    {
      "inputs": [
        {
          "internalType": "address",
          "name": "owner",
          "type": "address"
        },
        {
          "internalType": "uint256",
          "name": "index",
          "type": "uint256"
        }
      ],
      "name": "ERC721OutOfBoundsIndex",
      "type": "error"
    },
    {
      "inputs": [
        {
          "internalType": "address",
          "name": "owner",
          "type": "address"
        }
      ],
      "name": "OwnableInvalidOwner",
      "type": "error"
    },
    {
      "inputs": [
        {
          "internalType": "address",
          "name": "account",
          "type": "address"
        }
      ],
      "name": "OwnableUnauthorizedAccount",
      "type": "error"
    },
    {
      "anonymous": false,
      "inputs": [
        {
          "indexed": true,
          "internalType": "address",
          "name": "owner",
          "type": "address"
        },
        {
          "indexed": true,
          "internalType": "address",
          "name": "approved",
          "type": "address"
        },
        {
          "indexed": true,
          "internalType": "uint256",
          "name": "tokenId",
          "type": "uint256"
        }
      ],
      "name": "Approval",
      "type": "event"
    },
    {
      "anonymous": false,
      "inputs": [
        {
          "indexed": true,
          "internalType": "address",
          "name": "owner",
          "type": "address"
        },
        {
          "indexed": true,
          "internalType": "address",
          "name": "operator",
          "type": "address"
        },
        {
          "indexed": false,
          "internalType": "bool",
          "name": "approved",
          "type": "bool"
        }
      ],
      "name": "ApprovalForAll",
      "type": "event"
    },
    {
      "anonymous": false,
      "inputs": [
        {
          "indexed": true,
          "internalType": "address",
          "name": "to",
          "type": "address"
        },
        {
          "indexed": false,
          "internalType": "uint256",
          "name": "quantity",
          "type": "uint256"
        }
      ],
      "name": "Minted",
      "type": "event"
    },
    {
      "anonymous": false,
      "inputs": [
        {
          "indexed": true,
          "internalType": "address",
          "name": "previousOwner",
          "type": "address"
        },
        {
          "indexed": true,
          "internalType": "address",
          "name": "newOwner",
          "type": "address"
        }
      ],
      "name": "OwnershipTransferred",
      "type": "event"
    },
    {
      "anonymous": false,
      "inputs": [
        {
          "indexed": true,
          "internalType": "address",
          "name": "from",
          "type": "address"
        },
        {
          "indexed": true,
          "internalType": "address",
          "name": "to",
          "type": "address"
        },
        {
          "indexed": true,
          "internalType": "uint256",
          "name": "tokenId",
          "type": "uint256"
        }
      ],
      "name": "Transfer",
      "type": "event"
    },
    {
      "inputs": [],
      "name": "MAX_SUPPLY",
      "outputs": [
        {
          "internalType": "uint256",
          "name": "",
          "type": "uint256"
        }
      ],
      "stateMutability": "view",
      "type": "function"
    },
    {
      "inputs": [],
      "name": "MINT_PRICE",
      "outputs": [
        {
          "internalType": "uint256",
          "name": "",
          "type": "uint256"
        }
      ],
      "stateMutability": "view",
      "type": "function"
    },
    {
      "inputs": [
        {
          "internalType": "address",
          "name": "to",
          "type": "address"
        },
        {
          "internalType": "uint256",
          "name": "tokenId",
          "type": "uint256"
        }
      ],
      "name": "approve",
      "outputs": [],
      "stateMutability": "nonpayable",
      "type": "function"
    },
    {
      "inputs": [
        {
          "internalType": "address",
          "name": "owner",
          "type": "address"
        }
      ],
      "name": "balanceOf",
      "outputs": [
        {
          "internalType": "uint256",
          "name": "",
          "type": "uint256"
        }
      ],
      "stateMutability": "view",
      "type": "function"
    },
    {
      "inputs": [],
      "name": "endTimestamp",
      "outputs": [
        {
          "internalType": "uint256",
          "name": "",
          "type": "uint256"
        }
      ],
      "stateMutability": "view",
      "type": "function"
    },
    {
      "inputs": [
        {
          "internalType": "uint256",
          "name": "tokenId",
          "type": "uint256"
        }
      ],
      "name": "getApproved",
      "outputs": [
        {
          "internalType": "address",
          "name": "",
          "type": "address"
        }
      ],
      "stateMutability": "view",
      "type": "function"
    },
    {
      "inputs": [
        {
          "internalType": "address",
          "name": "owner",
          "type": "address"
        },
        {
          "internalType": "address",
          "name": "operator",
          "type": "address"
        }
      ],
      "name": "isApprovedForAll",
      "outputs": [
        {
          "internalType": "bool",
          "name": "",
          "type": "bool"
        }
      ],
      "stateMutability": "view",
      "type": "function"
    },
    {
      "inputs": [
        {
          "internalType": "uint256",
          "name": "quantity",
          "type": "uint256"
        }
      ],
      "name": "mint",
      "outputs": [],
      "stateMutability": "payable",
      "type": "function"
    },
    {
      "inputs": [],
      "name": "name",
      "outputs": [
        {
          "internalType": "string",
          "name": "",
          "type": "string"
        }
      ],
      "stateMutability": "view",
      "type": "function"
    },
    {
      "inputs": [],
      "name": "owner",
      "outputs": [
        {
          "internalType": "address",
          "name": "",
          "type": "address"
        }
      ],
      "stateMutability": "view",
      "type": "function"
    },
    {
      "inputs": [
        {
          "internalType": "uint256",
          "name": "tokenId",
          "type": "uint256"
        }
      ],
      "name": "ownerOf",
      "outputs": [
        {
          "internalType": "address",
          "name": "",
          "type": "address"
        }
      ],
      "stateMutability": "view",
      "type": "function"
    },
    {
      "inputs": [],
      "name": "renounceOwnership",
      "outputs": [],
      "stateMutability": "nonpayable",
      "type": "function"
    },
    {
      "inputs": [
        {
          "internalType": "address",
          "name": "from",
          "type": "address"
        },
        {
          "internalType": "address",
          "name": "to",
          "type": "address"
        },
        {
          "internalType": "uint256",
          "name": "tokenId",
          "type": "uint256"
        }
      ],
      "name": "safeTransferFrom",
      "outputs": [],
      "stateMutability": "nonpayable",
      "type": "function"
    },
    {
      "inputs": [
        {
          "internalType": "address",
          "name": "from",
          "type": "address"
        },
        {
          "internalType": "address",
          "name": "to",
          "type": "address"
        },
        {
          "internalType": "uint256",
          "name": "tokenId",
          "type": "uint256"
        },
        {
          "internalType": "bytes",
          "name": "data",
          "type": "bytes"
        }
      ],
      "name": "safeTransferFrom",
      "outputs": [],
      "stateMutability": "nonpayable",
      "type": "function"
    },
    {
      "inputs": [
        {
          "internalType": "address",
          "name": "operator",
          "type": "address"
        },
        {
          "internalType": "bool",
          "name": "approved",
          "type": "bool"
        }
      ],
      "name": "setApprovalForAll",
      "outputs": [],
      "stateMutability": "nonpayable",
      "type": "function"
    },
    {
      "inputs": [
        {
          "internalType": "string",
          "name": "_newBaseURI",
          "type": "string"
        }
      ],
      "name": "setBaseURI",
      "outputs": [],
      "stateMutability": "nonpayable",
      "type": "function"
    },
    {
      "inputs": [
        {
          "internalType": "uint256",
          "name": "_setEndTimestamp",
          "type": "uint256"
        }
      ],
      "name": "setEndTimestamp",
      "outputs": [],
      "stateMutability": "nonpayable",
      "type": "function"
    },
    {
      "inputs": [],
      "name": "startTimestamp",
      "outputs": [
        {
          "internalType": "uint256",
          "name": "",
          "type": "uint256"
        }
      ],
      "stateMutability": "view",
      "type": "function"
    },
    {
      "inputs": [
        {
          "internalType": "bytes4",
          "name": "interfaceId",
          "type": "bytes4"
        }
      ],
      "name": "supportsInterface",
      "outputs": [
        {
          "internalType": "bool",
          "name": "",
          "type": "bool"
        }
      ],
      "stateMutability": "view",
      "type": "function"
    },
    {
      "inputs": [],
      "name": "symbol",
      "outputs": [
        {
          "internalType": "string",
          "name": "",
          "type": "string"
        }
      ],
      "stateMutability": "view",
      "type": "function"
    },
    {
      "inputs": [
        {
          "internalType": "uint256",
          "name": "index",
          "type": "uint256"
        }
      ],
      "name": "tokenByIndex",
      "outputs": [
        {
          "internalType": "uint256",
          "name": "",
          "type": "uint256"
        }
      ],
      "stateMutability": "view",
      "type": "function"
    },
    {
      "inputs": [
        {
          "internalType": "address",
          "name": "owner",
          "type": "address"
        },
        {
          "internalType": "uint256",
          "name": "index",
          "type": "uint256"
        }
      ],
      "name": "tokenOfOwnerByIndex",
      "outputs": [
        {
          "internalType": "uint256",
          "name": "",
          "type": "uint256"
        }
      ],
      "stateMutability": "view",
      "type": "function"
    },
    {
      "inputs": [
        {
          "internalType": "uint256",
          "name": "tokenId",
          "type": "uint256"
        }
      ],
      "name": "tokenURI",
      "outputs": [
        {
          "internalType": "string",
          "name": "",
          "type": "string"
        }
      ],
      "stateMutability": "view",
      "type": "function"
    },
    {
      "inputs": [],
      "name": "totalSupply",
      "outputs": [
        {
          "internalType": "uint256",
          "name": "",
          "type": "uint256"
        }
      ],
      "stateMutability": "view",
      "type": "function"
    },
    {
      "inputs": [
        {
          "internalType": "address",
          "name": "from",
          "type": "address"
        },
        {
          "internalType": "address",
          "name": "to",
          "type": "address"
        },
        {
          "internalType": "uint256",
          "name": "tokenId",
          "type": "uint256"
        }
      ],
      "name": "transferFrom",
      "outputs": [],
      "stateMutability": "nonpayable",
      "type": "function"
    },
    {
      "inputs": [
        {
          "internalType": "address",
          "name": "newOwner",
          "type": "address"
        }
      ],
      "name": "transferOwnership",
      "outputs": [],
      "stateMutability": "nonpayable",
      "type": "function"
    },
    {
      "inputs": [],
      "name": "withdraw",
      "outputs": [],
      "stateMutability": "nonpayable",
      "type": "function"
    }
  ],
  "bytecode": "0x60a060405234801561001057600080fd5b50604051611ca9380380611ca983398101604081905261002f91610155565b336040518060400160405280600e81526020016d5375706572204d6f6e737465727360901b8152506040518060400160405280600381526020016214d35560ea1b815250816000908161008291906102aa565b50600161008f82826102aa565b5050506001600160a01b0381166100c057604051631e4fbdf760e01b81526000600482015260240160405180910390fd5b6100c9816100ed565b506367f3158060805263681e9700600b55600c6100e682826102aa565b5050610368565b600a80546001600160a01b038381166001600160a01b0319831681179093556040519116919082907f8be0079c531659141344cd1fd0a4f28419497f9722a3daafe3b4186f6b6457e090600090a35050565b634e487b7160e01b600052604160045260246000fd5b60006020828403121561016757600080fd5b81516001600160401b0381111561017d57600080fd5b8201601f8101841361018e57600080fd5b80516001600160401b038111156101a7576101a761013f565b604051601f8201601f19908116603f011681016001600160401b03811182821017156101d5576101d561013f565b6040528181528282016020018610156101ed57600080fd5b60005b8281101561020c576020818501810151838301820152016101f0565b50600091810160200191909152949350505050565b600181811c9082168061023557607f821691505b60208210810361025557634e487b7160e01b600052602260045260246000fd5b50919050565b601f8211156102a557806000526020600020601f840160051c810160208510156102825750805b601f840160051c820191505b818110156102a2576000815560010161028e565b50505b505050565b81516001600160401b038111156102c3576102c361013f565b6102d7816102d18454610221565b8461025b565b6020601f82116001811461030b57600083156102f35750848201515b600019600385901b1c1916600184901b1784556102a2565b600084815260208120601f198516915b8281101561033b578785015182556020948501946001909201910161031b565b50848210156103595786840151600019600387901b60f8161c191681555b50505050600190811b01905550565b60805161191f61038a6000396000818161049b015261083d015261191f6000f3fe60806040526004361061019c5760003560e01c806370a08231116100ec578063a85adeab1161008a578063c87b56dd11610064578063c87b56dd14610469578063e6fd48bc14610489578063e985e9c5146104bd578063f2fde38b146104dd57600080fd5b8063a85adeab14610418578063b88d4fde1461042e578063c002d23d1461044e57600080fd5b80638da5cb5b116100c65780638da5cb5b146103b257806395d89b41146103d0578063a0712d68146103e5578063a22cb465146103f857600080fd5b806370a082311461035d578063715018a61461037d5780637df6a6c81461039257600080fd5b80632f745c591161015957806342842e0e1161013357806342842e0e146102dd5780634f6ccce7146102fd57806355f804b31461031d5780636352211e1461033d57600080fd5b80632f745c591461029157806332cb6b0c146102b15780633ccfd60b146102c857600080fd5b806301ffc9a7146101a157806306fdde03146101d6578063081812fc146101f8578063095ea7b31461023057806318160ddd1461025257806323b872dd14610271575b600080fd5b3480156101ad57600080fd5b506101c16101bc3660046113d8565b6104fd565b60405190151581526020015b60405180910390f35b3480156101e257600080fd5b506101eb610528565b6040516101cd9190611442565b34801561020457600080fd5b50610218610213366004611455565b6105ba565b6040516001600160a01b0390911681526020016101cd565b34801561023c57600080fd5b5061025061024b36600461148a565b6105e3565b005b34801561025e57600080fd5b506008545b6040519081526020016101cd565b34801561027d57600080fd5b5061025061028c3660046114b4565b6105f2565b34801561029d57600080fd5b506102636102ac36600461148a565b610682565b3480156102bd57600080fd5b50610263620186a081565b3480156102d457600080fd5b506102506106e7565b3480156102e957600080fd5b506102506102f83660046114b4565b61072b565b34801561030957600080fd5b50610263610318366004611455565b61074b565b34801561032957600080fd5b50610250610338366004611581565b6107a4565b34801561034957600080fd5b50610218610358366004611455565b6107b8565b34801561036957600080fd5b506102636103783660046115ca565b6107c3565b34801561038957600080fd5b5061025061080b565b34801561039e57600080fd5b506102506103ad366004611455565b61081f565b3480156103be57600080fd5b50600a546001600160a01b0316610218565b3480156103dc57600080fd5b506101eb61082c565b6102506103f3366004611455565b61083b565b34801561040457600080fd5b506102506104133660046115e5565b610a07565b34801561042457600080fd5b50610263600b5481565b34801561043a57600080fd5b50610250610449366004611621565b610a12565b34801561045a57600080fd5b5061026366044364c5bb000081565b34801561047557600080fd5b506101eb610484366004611455565b610a2a565b34801561049557600080fd5b506102637f000000000000000000000000000000000000000000000000000000000000000081565b3480156104c957600080fd5b506101c16104d836600461169d565b610ac8565b3480156104e957600080fd5b506102506104f83660046115ca565b610af6565b60006001600160e01b0319821663780e9d6360e01b1480610522575061052282610b31565b92915050565b606060008054610537906116d0565b80601f0160208091040260200160405190810160405280929190818152602001828054610563906116d0565b80156105b05780601f10610585576101008083540402835291602001916105b0565b820191906000526020600020905b81548152906001019060200180831161059357829003601f168201915b5050505050905090565b60006105c582610b81565b506000828152600460205260409020546001600160a01b0316610522565b6105ee828233610bba565b5050565b6001600160a01b03821661062157604051633250574960e11b8152600060048201526024015b60405180910390fd5b600061062e838333610bc7565b9050836001600160a01b0316816001600160a01b03161461067c576040516364283d7b60e01b81526001600160a01b0380861660048301526024820184905282166044820152606401610618565b50505050565b600061068d836107c3565b82106106be5760405163295f44f760e21b81526001600160a01b038416600482015260248101839052604401610618565b506001600160a01b03919091166000908152600660209081526040808320938352929052205490565b6106ef610c9c565b600a546040516001600160a01b03909116904780156108fc02916000818181858888f19350505050158015610728573d6000803e3d6000fd5b50565b61074683838360405180602001604052806000815250610a12565b505050565b600061075660085490565b821061077f5760405163295f44f760e21b81526000600482015260248101839052604401610618565b600882815481106107925761079261170a565b90600052602060002001549050919050565b6107ac610c9c565b600c6105ee8282611767565b600061052282610b81565b60006001600160a01b0382166107ef576040516322718ad960e21b815260006004820152602401610618565b506001600160a01b031660009081526003602052604090205490565b610813610c9c565b61081d6000610cc9565b565b610827610c9c565b600b55565b606060018054610537906116d0565b7f00000000000000000000000000000000000000000000000000000000000000004210156108a25760405162461bcd60e51b815260206004820152601460248201527314d85b19481a185cc81b9bdd081cdd185c9d195960621b6044820152606401610618565b600b544211156108e55760405162461bcd60e51b815260206004820152600e60248201526d14d85b19481a185cc8195b99195960921b6044820152606401610618565b620186a0816108f360085490565b6108fd919061183c565b11156109405760405162461bcd60e51b815260206004820152601260248201527145786365656473204d41585f535550504c5960701b6044820152606401610618565b6109518166044364c5bb000061184f565b3410156109985760405162461bcd60e51b8152602060048201526015602482015274125b9cdd59999a58da595b9d08115512081cd95b9d605a1b6044820152606401610618565b60005b818110156109ce5760006109ae60085490565b6109b990600161183c565b90506109c53382610d1b565b5060010161099b565b5060405181815233907f30385c845b448a36257a6a1716e6ad2e1bc2cbe333cde1e69fe849ad6511adfe9060200160405180910390a250565b6105ee338383610d35565b610a1d8484846105f2565b61067c3385858585610dd4565b6060610a3582610b81565b50600c8054610a43906116d0565b80601f0160208091040260200160405190810160405280929190818152602001828054610a6f906116d0565b8015610abc5780601f10610a9157610100808354040283529160200191610abc565b820191906000526020600020905b815481529060010190602001808311610a9f57829003601f168201915b50505050509050919050565b6001600160a01b03918216600090815260056020908152604080832093909416825291909152205460ff1690565b610afe610c9c565b6001600160a01b038116610b2857604051631e4fbdf760e01b815260006004820152602401610618565b61072881610cc9565b60006001600160e01b031982166380ac58cd60e01b1480610b6257506001600160e01b03198216635b5e139f60e01b145b8061052257506301ffc9a760e01b6001600160e01b0319831614610522565b6000818152600260205260408120546001600160a01b03168061052257604051637e27328960e01b815260048101849052602401610618565b6107468383836001610eff565b600080610bd5858585611005565b90506001600160a01b038116610c3257610c2d84600880546000838152600960205260408120829055600182018355919091527ff3f7a9fe364faab93b216da50a3214154f22a0a2b415b23a84c8169e8b636ee30155565b610c55565b846001600160a01b0316816001600160a01b031614610c5557610c5581856110fe565b6001600160a01b038516610c7157610c6c8461117f565b610c94565b846001600160a01b0316816001600160a01b031614610c9457610c94858561122e565b949350505050565b600a546001600160a01b0316331461081d5760405163118cdaa760e01b8152336004820152602401610618565b600a80546001600160a01b038381166001600160a01b0319831681179093556040519116919082907f8be0079c531659141344cd1fd0a4f28419497f9722a3daafe3b4186f6b6457e090600090a35050565b6105ee82826040518060200160405280600081525061127e565b6001600160a01b038216610d6757604051630b61174360e31b81526001600160a01b0383166004820152602401610618565b6001600160a01b03838116600081815260056020908152604080832094871680845294825291829020805460ff191686151590811790915591519182527f17307eab39ab6107e8899845ad3d59bd9653f200f220920489ca2b5937696c31910160405180910390a3505050565b6001600160a01b0383163b15610ef857604051630a85bd0160e11b81526001600160a01b0384169063150b7a0290610e16908890889087908790600401611866565b6020604051808303816000875af1925050508015610e51575060408051601f3d908101601f19168201909252610e4e918101906118a3565b60015b610eba573d808015610e7f576040519150601f19603f3d011682016040523d82523d6000602084013e610e84565b606091505b508051600003610eb257604051633250574960e11b81526001600160a01b0385166004820152602401610618565b805181602001fd5b6001600160e01b03198116630a85bd0160e11b14610ef657604051633250574960e11b81526001600160a01b0385166004820152602401610618565b505b5050505050565b8080610f1357506001600160a01b03821615155b15610fd5576000610f2384610b81565b90506001600160a01b03831615801590610f4f5750826001600160a01b0316816001600160a01b031614155b8015610f625750610f608184610ac8565b155b15610f8b5760405163a9fbf51f60e01b81526001600160a01b0384166004820152602401610618565b8115610fd35783856001600160a01b0316826001600160a01b03167f8c5be1e5ebec7d5bd14f71427d1e84f3dd0314c0f7b2291e5b200ac8c7c3b92560405160405180910390a45b505b5050600090815260046020526040902080546001600160a01b0319166001600160a01b0392909216919091179055565b6000828152600260205260408120546001600160a01b039081169083161561103257611032818486611296565b6001600160a01b038116156110705761104f600085600080610eff565b6001600160a01b038116600090815260036020526040902080546000190190555b6001600160a01b0385161561109f576001600160a01b0385166000908152600360205260409020805460010190555b60008481526002602052604080822080546001600160a01b0319166001600160a01b0389811691821790925591518793918516917fddf252ad1be2c89b69c2b068fc378daa952ba7f163c4a11628f55a4df523b3ef91a4949350505050565b6000611109836107c3565b6000838152600760209081526040808320546001600160a01b038816845260069092529091209192509081831461116057600083815260208281526040808320548584528184208190558352600790915290208290555b6000938452600760209081526040808620869055938552525081205550565b600854600090611191906001906118c0565b600083815260096020526040812054600880549394509092849081106111b9576111b961170a565b9060005260206000200154905080600883815481106111da576111da61170a565b6000918252602080832090910192909255828152600990915260408082208490558582528120556008805480611212576112126118d3565b6001900381819060005260206000200160009055905550505050565b6000600161123b846107c3565b61124591906118c0565b6001600160a01b039093166000908152600660209081526040808320868452825280832085905593825260079052919091209190915550565b61128883836112fa565b610746336000858585610dd4565b6112a183838361135f565b610746576001600160a01b0383166112cf57604051637e27328960e01b815260048101829052602401610618565b60405163177e802f60e01b81526001600160a01b038316600482015260248101829052604401610618565b6001600160a01b03821661132457604051633250574960e11b815260006004820152602401610618565b600061133283836000610bc7565b90506001600160a01b03811615610746576040516339e3563760e11b815260006004820152602401610618565b60006001600160a01b03831615801590610c945750826001600160a01b0316846001600160a01b0316148061139957506113998484610ac8565b80610c945750506000908152600460205260409020546001600160a01b03908116911614919050565b6001600160e01b03198116811461072857600080fd5b6000602082840312156113ea57600080fd5b81356113f5816113c2565b9392505050565b6000815180845260005b8181101561142257602081850181015186830182015201611406565b506000602082860101526020601f19601f83011685010191505092915050565b6020815260006113f560208301846113fc565b60006020828403121561146757600080fd5b5035919050565b80356001600160a01b038116811461148557600080fd5b919050565b6000806040838503121561149d57600080fd5b6114a68361146e565b946020939093013593505050565b6000806000606084860312156114c957600080fd5b6114d28461146e565b92506114e06020850161146e565b929592945050506040919091013590565b634e487b7160e01b600052604160045260246000fd5b60008067ffffffffffffffff841115611522576115226114f1565b50604051601f19601f85018116603f0116810181811067ffffffffffffffff82111715611551576115516114f1565b60405283815290508082840185101561156957600080fd5b83836020830137600060208583010152509392505050565b60006020828403121561159357600080fd5b813567ffffffffffffffff8111156115aa57600080fd5b8201601f810184136115bb57600080fd5b610c9484823560208401611507565b6000602082840312156115dc57600080fd5b6113f58261146e565b600080604083850312156115f857600080fd5b6116018361146e565b91506020830135801515811461161657600080fd5b809150509250929050565b6000806000806080858703121561163757600080fd5b6116408561146e565b935061164e6020860161146e565b925060408501359150606085013567ffffffffffffffff81111561167157600080fd5b8501601f8101871361168257600080fd5b61169187823560208401611507565b91505092959194509250565b600080604083850312156116b057600080fd5b6116b98361146e565b91506116c76020840161146e565b90509250929050565b600181811c908216806116e457607f821691505b60208210810361170457634e487b7160e01b600052602260045260246000fd5b50919050565b634e487b7160e01b600052603260045260246000fd5b601f82111561074657806000526020600020601f840160051c810160208510156117475750805b601f840160051c820191505b81811015610ef85760008155600101611753565b815167ffffffffffffffff811115611781576117816114f1565b6117958161178f84546116d0565b84611720565b6020601f8211600181146117c957600083156117b15750848201515b600019600385901b1c1916600184901b178455610ef8565b600084815260208120601f198516915b828110156117f957878501518255602094850194600190920191016117d9565b50848210156118175786840151600019600387901b60f8161c191681555b50505050600190811b01905550565b634e487b7160e01b600052601160045260246000fd5b8082018082111561052257610522611826565b808202811582820484141761052257610522611826565b6001600160a01b0385811682528416602082015260408101839052608060608201819052600090611899908301846113fc565b9695505050505050565b6000602082840312156118b557600080fd5b81516113f5816113c2565b8181038181111561052257610522611826565b634e487b7160e01b600052603160045260246000fdfea26469706673582212201f8ddc223f51deaf139bb7701696dceee816384ca6f2b24c2269b5919da6e77d64736f6c634300081c0033",
  "linkReferences": {},
  "deployedLinkReferences": {}
}