{
  "_format": "hh-sol-artifact-1",
  "contractName": "NuushiNFT",
  "sourceName": "contracts/NuushiNFT.sol",
  "abi": [
    {
      "inputs": [
        {
          "internalType": "string",
          "name": "baseTokenURI",
          "type": "string"
        }
      ],
      "stateMutability": "nonpayable",
      "type": "constructor"
    },
    {
      "inputs": [],
      "name": "ERC721EnumerableForbiddenBatchMint",
      "type": "error"
    },
    {
      "inputs": [
        {
          "internalType": "address",
          "name": "sender",
          "type": "address"
        },
        {
          "internalType": "uint256",
          "name": "tokenId",
          "type": "uint256"
        },
        {
          "internalType": "address",
          "name": "owner",
          "type": "address"
        }
      ],
      "name": "ERC721IncorrectOwner",
      "type": "error"
    },
    {
      "inputs": [
        {
          "internalType": "address",
          "name": "operator",
          "type": "address"
        },
        {
          "internalType": "uint256",
          "name": "tokenId",
          "type": "uint256"
        }
      ],
      "name": "ERC721InsufficientApproval",
      "type": "error"
    },
    {
      "inputs": [
        {
          "internalType": "address",
          "name": "approver",
          "type": "address"
        }
      ],
      "name": "ERC721InvalidApprover",
      "type": "error"
    },
    {
      "inputs": [
        {
          "internalType": "address",
          "name": "operator",
          "type": "address"
        }
      ],
      "name": "ERC721InvalidOperator",
      "type": "error"
    },
    {
      "inputs": [
        {
          "internalType": "address",
          "name": "owner",
          "type": "address"
        }
      ],
      "name": "ERC721InvalidOwner",
      "type": "error"
    },
    {
      "inputs": [
        {
          "internalType": "address",
          "name": "receiver",
          "type": "address"
        }
      ],
      "name": "ERC721InvalidReceiver",
      "type": "error"
    },
    {
      "inputs": [
        {
          "internalType": "address",
          "name": "sender",
          "type": "address"
        }
      ],
      "name": "ERC721InvalidSender",
      "type": "error"
    },
    {
      "inputs": [
        {
          "internalType": "uint256",
          "name": "tokenId",
          "type": "uint256"
        }
      ],
      "name": "ERC721NonexistentToken",
      "type": "error"
    },
    {
      "inputs": [
        {
          "internalType": "address",
          "name": "owner",
          "type": "address"
        },
        {
          "internalType": "uint256",
          "name": "index",
          "type": "uint256"
        }
      ],
      "name": "ERC721OutOfBoundsIndex",
      "type": "error"
    },
    {
      "inputs": [
        {
          "internalType": "address",
          "name": "owner",
          "type": "address"
        }
      ],
      "name": "OwnableInvalidOwner",
      "type": "error"
    },
    {
      "inputs": [
        {
          "internalType": "address",
          "name": "account",
          "type": "address"
        }
      ],
      "name": "OwnableUnauthorizedAccount",
      "type": "error"
    },
    {
      "anonymous": false,
      "inputs": [
        {
          "indexed": true,
          "internalType": "address",
          "name": "owner",
          "type": "address"
        },
        {
          "indexed": true,
          "internalType": "address",
          "name": "approved",
          "type": "address"
        },
        {
          "indexed": true,
          "internalType": "uint256",
          "name": "tokenId",
          "type": "uint256"
        }
      ],
      "name": "Approval",
      "type": "event"
    },
    {
      "anonymous": false,
      "inputs": [
        {
          "indexed": true,
          "internalType": "address",
          "name": "owner",
          "type": "address"
        },
        {
          "indexed": true,
          "internalType": "address",
          "name": "operator",
          "type": "address"
        },
        {
          "indexed": false,
          "internalType": "bool",
          "name": "approved",
          "type": "bool"
        }
      ],
      "name": "ApprovalForAll",
      "type": "event"
    },
    {
      "anonymous": false,
      "inputs": [
        {
          "indexed": true,
          "internalType": "address",
          "name": "to",
          "type": "address"
        },
        {
          "indexed": false,
          "internalType": "uint256",
          "name": "quantity",
          "type": "uint256"
        }
      ],
      "name": "Minted",
      "type": "event"
    },
    {
      "anonymous": false,
      "inputs": [
        {
          "indexed": true,
          "internalType": "address",
          "name": "previousOwner",
          "type": "address"
        },
        {
          "indexed": true,
          "internalType": "address",
          "name": "newOwner",
          "type": "address"
        }
      ],
      "name": "OwnershipTransferred",
      "type": "event"
    },
    {
      "anonymous": false,
      "inputs": [
        {
          "indexed": true,
          "internalType": "address",
          "name": "from",
          "type": "address"
        },
        {
          "indexed": true,
          "internalType": "address",
          "name": "to",
          "type": "address"
        },
        {
          "indexed": true,
          "internalType": "uint256",
          "name": "tokenId",
          "type": "uint256"
        }
      ],
      "name": "Transfer",
      "type": "event"
    },
    {
      "inputs": [],
      "name": "MAX_SUPPLY",
      "outputs": [
        {
          "internalType": "uint256",
          "name": "",
          "type": "uint256"
        }
      ],
      "stateMutability": "view",
      "type": "function"
    },
    {
      "inputs": [],
      "name": "MINT_PRICE",
      "outputs": [
        {
          "internalType": "uint256",
          "name": "",
          "type": "uint256"
        }
      ],
      "stateMutability": "view",
      "type": "function"
    },
    {
      "inputs": [
        {
          "internalType": "address",
          "name": "to",
          "type": "address"
        },
        {
          "internalType": "uint256",
          "name": "tokenId",
          "type": "uint256"
        }
      ],
      "name": "approve",
      "outputs": [],
      "stateMutability": "nonpayable",
      "type": "function"
    },
    {
      "inputs": [
        {
          "internalType": "address",
          "name": "owner",
          "type": "address"
        }
      ],
      "name": "balanceOf",
      "outputs": [
        {
          "internalType": "uint256",
          "name": "",
          "type": "uint256"
        }
      ],
      "stateMutability": "view",
      "type": "function"
    },
    {
      "inputs": [],
      "name": "endTimestamp",
      "outputs": [
        {
          "internalType": "uint256",
          "name": "",
          "type": "uint256"
        }
      ],
      "stateMutability": "view",
      "type": "function"
    },
    {
      "inputs": [
        {
          "internalType": "uint256",
          "name": "tokenId",
          "type": "uint256"
        }
      ],
      "name": "getApproved",
      "outputs": [
        {
          "internalType": "address",
          "name": "",
          "type": "address"
        }
      ],
      "stateMutability": "view",
      "type": "function"
    },
    {
      "inputs": [
        {
          "internalType": "address",
          "name": "owner",
          "type": "address"
        },
        {
          "internalType": "address",
          "name": "operator",
          "type": "address"
        }
      ],
      "name": "isApprovedForAll",
      "outputs": [
        {
          "internalType": "bool",
          "name": "",
          "type": "bool"
        }
      ],
      "stateMutability": "view",
      "type": "function"
    },
    {
      "inputs": [
        {
          "internalType": "uint256",
          "name": "quantity",
          "type": "uint256"
        }
      ],
      "name": "mint",
      "outputs": [],
      "stateMutability": "payable",
      "type": "function"
    },
    {
      "inputs": [],
      "name": "name",
      "outputs": [
        {
          "internalType": "string",
          "name": "",
          "type": "string"
        }
      ],
      "stateMutability": "view",
      "type": "function"
    },
    {
      "inputs": [],
      "name": "owner",
      "outputs": [
        {
          "internalType": "address",
          "name": "",
          "type": "address"
        }
      ],
      "stateMutability": "view",
      "type": "function"
    },
    {
      "inputs": [
        {
          "internalType": "uint256",
          "name": "tokenId",
          "type": "uint256"
        }
      ],
      "name": "ownerOf",
      "outputs": [
        {
          "internalType": "address",
          "name": "",
          "type": "address"
        }
      ],
      "stateMutability": "view",
      "type": "function"
    },
    {
      "inputs": [],
      "name": "renounceOwnership",
      "outputs": [],
      "stateMutability": "nonpayable",
      "type": "function"
    },
    {
      "inputs": [
        {
          "internalType": "address",
          "name": "from",
          "type": "address"
        },
        {
          "internalType": "address",
          "name": "to",
          "type": "address"
        },
        {
          "internalType": "uint256",
          "name": "tokenId",
          "type": "uint256"
        }
      ],
      "name": "safeTransferFrom",
      "outputs": [],
      "stateMutability": "nonpayable",
      "type": "function"
    },
    {
      "inputs": [
        {
          "internalType": "address",
          "name": "from",
          "type": "address"
        },
        {
          "internalType": "address",
          "name": "to",
          "type": "address"
        },
        {
          "internalType": "uint256",
          "name": "tokenId",
          "type": "uint256"
        },
        {
          "internalType": "bytes",
          "name": "data",
          "type": "bytes"
        }
      ],
      "name": "safeTransferFrom",
      "outputs": [],
      "stateMutability": "nonpayable",
      "type": "function"
    },
    {
      "inputs": [
        {
          "internalType": "address",
          "name": "operator",
          "type": "address"
        },
        {
          "internalType": "bool",
          "name": "approved",
          "type": "bool"
        }
      ],
      "name": "setApprovalForAll",
      "outputs": [],
      "stateMutability": "nonpayable",
      "type": "function"
    },
    {
      "inputs": [
        {
          "internalType": "string",
          "name": "_newBaseURI",
          "type": "string"
        }
      ],
      "name": "setBaseURI",
      "outputs": [],
      "stateMutability": "nonpayable",
      "type": "function"
    },
    {
      "inputs": [],
      "name": "startTimestamp",
      "outputs": [
        {
          "internalType": "uint256",
          "name": "",
          "type": "uint256"
        }
      ],
      "stateMutability": "view",
      "type": "function"
    },
    {
      "inputs": [
        {
          "internalType": "bytes4",
          "name": "interfaceId",
          "type": "bytes4"
        }
      ],
      "name": "supportsInterface",
      "outputs": [
        {
          "internalType": "bool",
          "name": "",
          "type": "bool"
        }
      ],
      "stateMutability": "view",
      "type": "function"
    },
    {
      "inputs": [],
      "name": "symbol",
      "outputs": [
        {
          "internalType": "string",
          "name": "",
          "type": "string"
        }
      ],
      "stateMutability": "view",
      "type": "function"
    },
    {
      "inputs": [
        {
          "internalType": "uint256",
          "name": "index",
          "type": "uint256"
        }
      ],
      "name": "tokenByIndex",
      "outputs": [
        {
          "internalType": "uint256",
          "name": "",
          "type": "uint256"
        }
      ],
      "stateMutability": "view",
      "type": "function"
    },
    {
      "inputs": [
        {
          "internalType": "address",
          "name": "owner",
          "type": "address"
        },
        {
          "internalType": "uint256",
          "name": "index",
          "type": "uint256"
        }
      ],
      "name": "tokenOfOwnerByIndex",
      "outputs": [
        {
          "internalType": "uint256",
          "name": "",
          "type": "uint256"
        }
      ],
      "stateMutability": "view",
      "type": "function"
    },
    {
      "inputs": [
        {
          "internalType": "uint256",
          "name": "tokenId",
          "type": "uint256"
        }
      ],
      "name": "tokenURI",
      "outputs": [
        {
          "internalType": "string",
          "name": "",
          "type": "string"
        }
      ],
      "stateMutability": "view",
      "type": "function"
    },
    {
      "inputs": [],
      "name": "totalSupply",
      "outputs": [
        {
          "internalType": "uint256",
          "name": "",
          "type": "uint256"
        }
      ],
      "stateMutability": "view",
      "type": "function"
    },
    {
      "inputs": [
        {
          "internalType": "address",
          "name": "from",
          "type": "address"
        },
        {
          "internalType": "address",
          "name": "to",
          "type": "address"
        },
        {
          "internalType": "uint256",
          "name": "tokenId",
          "type": "uint256"
        }
      ],
      "name": "transferFrom",
      "outputs": [],
      "stateMutability": "nonpayable",
      "type": "function"
    },
    {
      "inputs": [
        {
          "internalType": "address",
          "name": "newOwner",
          "type": "address"
        }
      ],
      "name": "transferOwnership",
      "outputs": [],
      "stateMutability": "nonpayable",
      "type": "function"
    },
    {
      "inputs": [],
      "name": "withdraw",
      "outputs": [],
      "stateMutability": "nonpayable",
      "type": "function"
    }
  ],
  "bytecode": "0x60c060405234801561001057600080fd5b50604051611ce2380380611ce283398101604081905261002f91610162565b3360405180604001604052806012815260200171496e74726f647563696e67204e555524484960701b815250604051806040016040528060068152602001654e555553484960d01b815250816000908161008991906102b7565b50600161009682826102b7565b5050506001600160a01b0381166100c757604051631e4fbdf760e01b81526000600482015260240160405180910390fd5b6100d0816100fa565b504260808190526100e49062127500610375565b60a052600b6100f382826102b7565b505061039c565b600a80546001600160a01b038381166001600160a01b0319831681179093556040519116919082907f8be0079c531659141344cd1fd0a4f28419497f9722a3daafe3b4186f6b6457e090600090a35050565b634e487b7160e01b600052604160045260246000fd5b60006020828403121561017457600080fd5b81516001600160401b0381111561018a57600080fd5b8201601f8101841361019b57600080fd5b80516001600160401b038111156101b4576101b461014c565b604051601f8201601f19908116603f011681016001600160401b03811182821017156101e2576101e261014c565b6040528181528282016020018610156101fa57600080fd5b60005b82811015610219576020818501810151838301820152016101fd565b50600091810160200191909152949350505050565b600181811c9082168061024257607f821691505b60208210810361026257634e487b7160e01b600052602260045260246000fd5b50919050565b601f8211156102b257806000526020600020601f840160051c8101602085101561028f5750805b601f840160051c820191505b818110156102af576000815560010161029b565b50505b505050565b81516001600160401b038111156102d0576102d061014c565b6102e4816102de845461022e565b84610268565b6020601f82116001811461031857600083156103005750848201515b600019600385901b1c1916600184901b1784556102af565b600084815260208120601f198516915b828110156103485787850151825560209485019460019092019101610328565b50848210156103665786840151600019600387901b60f8161c191681555b50505050600190811b01905550565b8082018082111561039657634e487b7160e01b600052601160045260246000fd5b92915050565b60805160a0516119136103cf600039600081816103ef015261087a01526000818161047e015261081301526119136000f3fe6080604052600436106101815760003560e01c806370a08231116100d1578063a85adeab1161008a578063c87b56dd11610064578063c87b56dd1461044c578063e6fd48bc1461046c578063e985e9c5146104a0578063f2fde38b146104c057600080fd5b8063a85adeab146103dd578063b88d4fde14610411578063c002d23d1461043157600080fd5b806370a0823114610342578063715018a6146103625780638da5cb5b1461037757806395d89b4114610395578063a0712d68146103aa578063a22cb465146103bd57600080fd5b80632f745c591161013e57806342842e0e1161011857806342842e0e146102c25780634f6ccce7146102e257806355f804b3146103025780636352211e1461032257600080fd5b80632f745c591461027657806332cb6b0c146102965780633ccfd60b146102ad57600080fd5b806301ffc9a71461018657806306fdde03146101bb578063081812fc146101dd578063095ea7b31461021557806318160ddd1461023757806323b872dd14610256575b600080fd5b34801561019257600080fd5b506101a66101a13660046113cc565b6104e0565b60405190151581526020015b60405180910390f35b3480156101c757600080fd5b506101d061050b565b6040516101b29190611436565b3480156101e957600080fd5b506101fd6101f8366004611449565b61059d565b6040516001600160a01b0390911681526020016101b2565b34801561022157600080fd5b5061023561023036600461147e565b6105c6565b005b34801561024357600080fd5b506008545b6040519081526020016101b2565b34801561026257600080fd5b506102356102713660046114a8565b6105d5565b34801561028257600080fd5b5061024861029136600461147e565b610665565b3480156102a257600080fd5b50610248620f423f81565b3480156102b957600080fd5b506102356106ca565b3480156102ce57600080fd5b506102356102dd3660046114a8565b61070e565b3480156102ee57600080fd5b506102486102fd366004611449565b61072e565b34801561030e57600080fd5b5061023561031d366004611575565b610787565b34801561032e57600080fd5b506101fd61033d366004611449565b61079b565b34801561034e57600080fd5b5061024861035d3660046115be565b6107a6565b34801561036e57600080fd5b506102356107ee565b34801561038357600080fd5b50600a546001600160a01b03166101fd565b3480156103a157600080fd5b506101d0610802565b6102356103b8366004611449565b610811565b3480156103c957600080fd5b506102356103d83660046115d9565b6109fb565b3480156103e957600080fd5b506102487f000000000000000000000000000000000000000000000000000000000000000081565b34801561041d57600080fd5b5061023561042c366004611615565b610a06565b34801561043d57600080fd5b506102486602c2ad68fd900081565b34801561045857600080fd5b506101d0610467366004611449565b610a1e565b34801561047857600080fd5b506102487f000000000000000000000000000000000000000000000000000000000000000081565b3480156104ac57600080fd5b506101a66104bb366004611691565b610abc565b3480156104cc57600080fd5b506102356104db3660046115be565b610aea565b60006001600160e01b0319821663780e9d6360e01b1480610505575061050582610b25565b92915050565b60606000805461051a906116c4565b80601f0160208091040260200160405190810160405280929190818152602001828054610546906116c4565b80156105935780601f1061056857610100808354040283529160200191610593565b820191906000526020600020905b81548152906001019060200180831161057657829003601f168201915b5050505050905090565b60006105a882610b75565b506000828152600460205260409020546001600160a01b0316610505565b6105d1828233610bae565b5050565b6001600160a01b03821661060457604051633250574960e11b8152600060048201526024015b60405180910390fd5b6000610611838333610bbb565b9050836001600160a01b0316816001600160a01b03161461065f576040516364283d7b60e01b81526001600160a01b03808616600483015260248201849052821660448201526064016105fb565b50505050565b6000610670836107a6565b82106106a15760405163295f44f760e21b81526001600160a01b0384166004820152602481018390526044016105fb565b506001600160a01b03919091166000908152600660209081526040808320938352929052205490565b6106d2610c90565b600a546040516001600160a01b03909116904780156108fc02916000818181858888f1935050505015801561070b573d6000803e3d6000fd5b50565b61072983838360405180602001604052806000815250610a06565b505050565b600061073960085490565b82106107625760405163295f44f760e21b815260006004820152602481018390526044016105fb565b60088281548110610775576107756116fe565b90600052602060002001549050919050565b61078f610c90565b600b6105d1828261175b565b600061050582610b75565b60006001600160a01b0382166107d2576040516322718ad960e21b8152600060048201526024016105fb565b506001600160a01b031660009081526003602052604090205490565b6107f6610c90565b6108006000610cbd565b565b60606001805461051a906116c4565b7f00000000000000000000000000000000000000000000000000000000000000004210156108785760405162461bcd60e51b815260206004820152601460248201527314d85b19481a185cc81b9bdd081cdd185c9d195960621b60448201526064016105fb565b7f00000000000000000000000000000000000000000000000000000000000000004211156108d95760405162461bcd60e51b815260206004820152600e60248201526d14d85b19481a185cc8195b99195960921b60448201526064016105fb565b620f423f816108e760085490565b6108f19190611830565b11156109345760405162461bcd60e51b815260206004820152601260248201527145786365656473204d41585f535550504c5960701b60448201526064016105fb565b610945816602c2ad68fd9000611843565b34101561098c5760405162461bcd60e51b8152602060048201526015602482015274125b9cdd59999a58da595b9d08115512081cd95b9d605a1b60448201526064016105fb565b60005b818110156109c25760006109a260085490565b6109ad906001611830565b90506109b93382610d0f565b5060010161098f565b5060405181815233907f30385c845b448a36257a6a1716e6ad2e1bc2cbe333cde1e69fe849ad6511adfe9060200160405180910390a250565b6105d1338383610d29565b610a118484846105d5565b61065f3385858585610dc8565b6060610a2982610b75565b50600b8054610a37906116c4565b80601f0160208091040260200160405190810160405280929190818152602001828054610a63906116c4565b8015610ab05780601f10610a8557610100808354040283529160200191610ab0565b820191906000526020600020905b815481529060010190602001808311610a9357829003601f168201915b50505050509050919050565b6001600160a01b03918216600090815260056020908152604080832093909416825291909152205460ff1690565b610af2610c90565b6001600160a01b038116610b1c57604051631e4fbdf760e01b8152600060048201526024016105fb565b61070b81610cbd565b60006001600160e01b031982166380ac58cd60e01b1480610b5657506001600160e01b03198216635b5e139f60e01b145b8061050557506301ffc9a760e01b6001600160e01b0319831614610505565b6000818152600260205260408120546001600160a01b03168061050557604051637e27328960e01b8152600481018490526024016105fb565b6107298383836001610ef3565b600080610bc9858585610ff9565b90506001600160a01b038116610c2657610c2184600880546000838152600960205260408120829055600182018355919091527ff3f7a9fe364faab93b216da50a3214154f22a0a2b415b23a84c8169e8b636ee30155565b610c49565b846001600160a01b0316816001600160a01b031614610c4957610c4981856110f2565b6001600160a01b038516610c6557610c6084611173565b610c88565b846001600160a01b0316816001600160a01b031614610c8857610c888585611222565b949350505050565b600a546001600160a01b031633146108005760405163118cdaa760e01b81523360048201526024016105fb565b600a80546001600160a01b038381166001600160a01b0319831681179093556040519116919082907f8be0079c531659141344cd1fd0a4f28419497f9722a3daafe3b4186f6b6457e090600090a35050565b6105d1828260405180602001604052806000815250611272565b6001600160a01b038216610d5b57604051630b61174360e31b81526001600160a01b03831660048201526024016105fb565b6001600160a01b03838116600081815260056020908152604080832094871680845294825291829020805460ff191686151590811790915591519182527f17307eab39ab6107e8899845ad3d59bd9653f200f220920489ca2b5937696c31910160405180910390a3505050565b6001600160a01b0383163b15610eec57604051630a85bd0160e11b81526001600160a01b0384169063150b7a0290610e0a90889088908790879060040161185a565b6020604051808303816000875af1925050508015610e45575060408051601f3d908101601f19168201909252610e4291810190611897565b60015b610eae573d808015610e73576040519150601f19603f3d011682016040523d82523d6000602084013e610e78565b606091505b508051600003610ea657604051633250574960e11b81526001600160a01b03851660048201526024016105fb565b805181602001fd5b6001600160e01b03198116630a85bd0160e11b14610eea57604051633250574960e11b81526001600160a01b03851660048201526024016105fb565b505b5050505050565b8080610f0757506001600160a01b03821615155b15610fc9576000610f1784610b75565b90506001600160a01b03831615801590610f435750826001600160a01b0316816001600160a01b031614155b8015610f565750610f548184610abc565b155b15610f7f5760405163a9fbf51f60e01b81526001600160a01b03841660048201526024016105fb565b8115610fc75783856001600160a01b0316826001600160a01b03167f8c5be1e5ebec7d5bd14f71427d1e84f3dd0314c0f7b2291e5b200ac8c7c3b92560405160405180910390a45b505b5050600090815260046020526040902080546001600160a01b0319166001600160a01b0392909216919091179055565b6000828152600260205260408120546001600160a01b03908116908316156110265761102681848661128a565b6001600160a01b0381161561106457611043600085600080610ef3565b6001600160a01b038116600090815260036020526040902080546000190190555b6001600160a01b03851615611093576001600160a01b0385166000908152600360205260409020805460010190555b60008481526002602052604080822080546001600160a01b0319166001600160a01b0389811691821790925591518793918516917fddf252ad1be2c89b69c2b068fc378daa952ba7f163c4a11628f55a4df523b3ef91a4949350505050565b60006110fd836107a6565b6000838152600760209081526040808320546001600160a01b038816845260069092529091209192509081831461115457600083815260208281526040808320548584528184208190558352600790915290208290555b6000938452600760209081526040808620869055938552525081205550565b600854600090611185906001906118b4565b600083815260096020526040812054600880549394509092849081106111ad576111ad6116fe565b9060005260206000200154905080600883815481106111ce576111ce6116fe565b6000918252602080832090910192909255828152600990915260408082208490558582528120556008805480611206576112066118c7565b6001900381819060005260206000200160009055905550505050565b6000600161122f846107a6565b61123991906118b4565b6001600160a01b039093166000908152600660209081526040808320868452825280832085905593825260079052919091209190915550565b61127c83836112ee565b610729336000858585610dc8565b611295838383611353565b610729576001600160a01b0383166112c357604051637e27328960e01b8152600481018290526024016105fb565b60405163177e802f60e01b81526001600160a01b0383166004820152602481018290526044016105fb565b6001600160a01b03821661131857604051633250574960e11b8152600060048201526024016105fb565b600061132683836000610bbb565b90506001600160a01b03811615610729576040516339e3563760e11b8152600060048201526024016105fb565b60006001600160a01b03831615801590610c885750826001600160a01b0316846001600160a01b0316148061138d575061138d8484610abc565b80610c885750506000908152600460205260409020546001600160a01b03908116911614919050565b6001600160e01b03198116811461070b57600080fd5b6000602082840312156113de57600080fd5b81356113e9816113b6565b9392505050565b6000815180845260005b81811015611416576020818501810151868301820152016113fa565b506000602082860101526020601f19601f83011685010191505092915050565b6020815260006113e960208301846113f0565b60006020828403121561145b57600080fd5b5035919050565b80356001600160a01b038116811461147957600080fd5b919050565b6000806040838503121561149157600080fd5b61149a83611462565b946020939093013593505050565b6000806000606084860312156114bd57600080fd5b6114c684611462565b92506114d460208501611462565b929592945050506040919091013590565b634e487b7160e01b600052604160045260246000fd5b60008067ffffffffffffffff841115611516576115166114e5565b50604051601f19601f85018116603f0116810181811067ffffffffffffffff82111715611545576115456114e5565b60405283815290508082840185101561155d57600080fd5b83836020830137600060208583010152509392505050565b60006020828403121561158757600080fd5b813567ffffffffffffffff81111561159e57600080fd5b8201601f810184136115af57600080fd5b610c88848235602084016114fb565b6000602082840312156115d057600080fd5b6113e982611462565b600080604083850312156115ec57600080fd5b6115f583611462565b91506020830135801515811461160a57600080fd5b809150509250929050565b6000806000806080858703121561162b57600080fd5b61163485611462565b935061164260208601611462565b925060408501359150606085013567ffffffffffffffff81111561166557600080fd5b8501601f8101871361167657600080fd5b611685878235602084016114fb565b91505092959194509250565b600080604083850312156116a457600080fd5b6116ad83611462565b91506116bb60208401611462565b90509250929050565b600181811c908216806116d857607f821691505b6020821081036116f857634e487b7160e01b600052602260045260246000fd5b50919050565b634e487b7160e01b600052603260045260246000fd5b601f82111561072957806000526020600020601f840160051c8101602085101561173b5750805b601f840160051c820191505b81811015610eec5760008155600101611747565b815167ffffffffffffffff811115611775576117756114e5565b6117898161178384546116c4565b84611714565b6020601f8211600181146117bd57600083156117a55750848201515b600019600385901b1c1916600184901b178455610eec565b600084815260208120601f198516915b828110156117ed57878501518255602094850194600190920191016117cd565b508482101561180b5786840151600019600387901b60f8161c191681555b50505050600190811b01905550565b634e487b7160e01b600052601160045260246000fd5b808201808211156105055761050561181a565b80820281158282048414176105055761050561181a565b6001600160a01b038581168252841660208201526040810183905260806060820181905260009061188d908301846113f0565b9695505050505050565b6000602082840312156118a957600080fd5b81516113e9816113b6565b818103818111156105055761050561181a565b634e487b7160e01b600052603160045260246000fdfea26469706673582212206deed40cb304b79a59d5af34e21451df992d9a2f372a2fbb49f46cb9f53b7a8664736f6c634300081c0033",
  "linkReferences": {},
  "deployedLinkReferences": {}
}